{
    "contractName": "Room",
    "abi": [
        {
            "inputs": [
                {
                    "internalType": "address",
                    "name": "_creator",
                    "type": "address"
                }
            ],
            "stateMutability": "payable",
            "type": "constructor"
        },
        {
            "anonymous": false,
            "inputs": [
                {
                    "indexed": true,
                    "internalType": "address",
                    "name": "_sender",
                    "type": "address"
                }
            ],
            "name": "Activate",
            "type": "event"
        },
        {
            "anonymous": false,
            "inputs": [
                {
                    "indexed": true,
                    "internalType": "address",
                    "name": "_sender",
                    "type": "address"
                }
            ],
            "name": "Deactivate",
            "type": "event"
        },
        {
            "anonymous": false,
            "inputs": [
                {
                    "indexed": true,
                    "internalType": "address",
                    "name": "_depositor",
                    "type": "address"
                },
                {
                    "indexed": false,
                    "internalType": "uint256",
                    "name": "_depositedValue",
                    "type": "uint256"
                }
            ],
            "name": "Deposited",
            "type": "event"
        },
        {
            "anonymous": false,
            "inputs": [
                {
                    "indexed": true,
                    "internalType": "address",
                    "name": "previousOwner",
                    "type": "address"
                },
                {
                    "indexed": true,
                    "internalType": "address",
                    "name": "newOwner",
                    "type": "address"
                }
            ],
            "name": "OwnershipTransferred",
            "type": "event"
        },
        {
            "anonymous": false,
            "inputs": [
                {
                    "indexed": false,
                    "internalType": "address",
                    "name": "account",
                    "type": "address"
                }
            ],
            "name": "Paused",
            "type": "event"
        },
        {
            "anonymous": false,
            "inputs": [
                {
                    "indexed": true,
                    "internalType": "address",
                    "name": "_dest",
                    "type": "address"
                },
                {
                    "indexed": false,
                    "internalType": "uint256",
                    "name": "_refundedBalance",
                    "type": "uint256"
                }
            ],
            "name": "RefundedToOwner",
            "type": "event"
        },
        {
            "anonymous": false,
            "inputs": [
                {
                    "indexed": true,
                    "internalType": "address",
                    "name": "_dest",
                    "type": "address"
                },
                {
                    "indexed": false,
                    "internalType": "uint256",
                    "name": "_reward",
                    "type": "uint256"
                },
                {
                    "indexed": false,
                    "internalType": "uint256",
                    "name": "_id",
                    "type": "uint256"
                }
            ],
            "name": "RewardSent",
            "type": "event"
        },
        {
            "anonymous": false,
            "inputs": [
                {
                    "indexed": false,
                    "internalType": "address",
                    "name": "account",
                    "type": "address"
                }
            ],
            "name": "Unpaused",
            "type": "event"
        },
        {
            "inputs": [],
            "name": "activate",
            "outputs": [],
            "stateMutability": "nonpayable",
            "type": "function"
        },
        {
            "inputs": [],
            "name": "active",
            "outputs": [
                {
                    "internalType": "bool",
                    "name": "",
                    "type": "bool"
                }
            ],
            "stateMutability": "view",
            "type": "function"
        },
        {
            "inputs": [],
            "name": "deactivate",
            "outputs": [],
            "stateMutability": "nonpayable",
            "type": "function"
        },
        {
            "inputs": [],
            "name": "deposit",
            "outputs": [],
            "stateMutability": "payable",
            "type": "function"
        },
        {
            "inputs": [],
            "name": "owner",
            "outputs": [
                {
                    "internalType": "address",
                    "name": "",
                    "type": "address"
                }
            ],
            "stateMutability": "view",
            "type": "function"
        },
        {
            "inputs": [],
            "name": "paused",
            "outputs": [
                {
                    "internalType": "bool",
                    "name": "",
                    "type": "bool"
                }
            ],
            "stateMutability": "view",
            "type": "function"
        },
        {
            "inputs": [],
            "name": "refundToOwner",
            "outputs": [],
            "stateMutability": "nonpayable",
            "type": "function"
        },
        {
            "inputs": [],
            "name": "renounceOwnership",
            "outputs": [],
            "stateMutability": "nonpayable",
            "type": "function"
        },
        {
            "inputs": [
                {
                    "internalType": "uint256",
                    "name": "",
                    "type": "uint256"
                }
            ],
            "name": "rewardSent",
            "outputs": [
                {
                    "internalType": "bool",
                    "name": "",
                    "type": "bool"
                }
            ],
            "stateMutability": "view",
            "type": "function"
        },
        {
            "inputs": [
                {
                    "internalType": "uint256",
                    "name": "_reward",
                    "type": "uint256"
                },
                {
                    "internalType": "address",
                    "name": "_dest",
                    "type": "address"
                },
                {
                    "internalType": "uint256",
                    "name": "_id",
                    "type": "uint256"
                }
            ],
            "name": "sendReward",
            "outputs": [],
            "stateMutability": "nonpayable",
            "type": "function"
        },
        {
            "inputs": [
                {
                    "internalType": "address",
                    "name": "newOwner",
                    "type": "address"
                }
            ],
            "name": "transferOwnership",
            "outputs": [],
            "stateMutability": "nonpayable",
            "type": "function"
        }
    ],
    "bytecode": "60806040526000805460ff60a81b1916905561001961009f565b600160006101000a8154816001600160a01b0302191690836001600160a01b0316021790555060405161097738038061097783398101604081905261005d91610102565b61006d6100686100ae565b6100b2565b6000805460ff60a01b19169055600180546001600160a01b0319166001600160a01b0392909216919091179055610130565b6000546001600160a01b031690565b3390565b600080546001600160a01b038381166001600160a01b0319831681178455604051919092169283917f8be0079c531659141344cd1fd0a4f28419497f9722a3daafe3b4186f6b6457e09190a35050565b600060208284031215610113578081fd5b81516001600160a01b0381168114610129578182fd5b9392505050565b6108388061013f6000396000f3fe60806040526004361061009c5760003560e01c80635c975abb116100645780635c975abb1461012d578063715018a6146101425780638da5cb5b146101575780638f13402514610179578063d0e30db014610199578063f2fde38b146101a15761009c565b806302fb0c5e146100a15780630f15f4c0146100cc5780632673bd74146100e35780633e4e10d61461010357806351b42b0014610118575b600080fd5b3480156100ad57600080fd5b506100b66101c1565b6040516100c3919061072a565b60405180910390f35b3480156100d857600080fd5b506100e16101d1565b005b3480156100ef57600080fd5b506100e16100fe3660046106e2565b610249565b34801561010f57600080fd5b506100e16103ad565b34801561012457600080fd5b506100e1610480565b34801561013957600080fd5b506100b66104e8565b34801561014e57600080fd5b506100e16104f8565b34801561016357600080fd5b5061016c61050c565b6040516100c39190610716565b34801561018557600080fd5b506100b66101943660046106ca565b61051b565b6100e1610530565b3480156101ad57600080fd5b506100e16101bc3660046106a9565b61059b565b600054600160a81b900460ff1681565b600054600160a81b900460ff16156102045760405162461bcd60e51b81526004016101fb906107da565b60405180910390fd5b61020c6105d5565b6000805460ff60a81b1916600160a81b17815560405133917ff7e9fe69e1d05372bc855b295bc4c34a1a0a5882164dd2b26df30a26c1c8ba1591a2565b6102516105d5565b60008181526002602052604090205460ff16156102805760405162461bcd60e51b81526004016101fb906107da565b600083116102a05760405162461bcd60e51b81526004016101fb906107da565b824710156102c05760405162461bcd60e51b81526004016101fb906107da565b6001600160a01b0382166102e65760405162461bcd60e51b81526004016101fb906107da565b6001546001600160a01b03838116911614156103145760405162461bcd60e51b81526004016101fb906107da565b600081815260026020526040808220805460ff191660011790555183916001600160a01b0383169186156108fc0291879190818181858888f19350505050158015610363573d6000803e3d6000fd5b50826001600160a01b03167f6379339f0ae63e95e65fad18ca2a7ec4e7e3f05f3cc5f7079f4d8da8cec34faa858460405161039f9291906107f4565b60405180910390a250505050565b600054600160a81b900460ff16156103d75760405162461bcd60e51b81526004016101fb906107da565b6103df6105d5565b600047116103ff5760405162461bcd60e51b81526004016101fb906107da565b60015460405147916001600160a01b03169081904780156108fc02916000818181858888f1935050505015801561043a573d6000803e3d6000fd5b50336001600160a01b03167fa9304f0ac97f820b11d5a66f29245fb1e76b1f1f93f46a84a71682e69d095e808360405161047491906107eb565b60405180910390a25050565b600054600160a81b900460ff166104a95760405162461bcd60e51b81526004016101fb906107da565b6104b16105d5565b6000805460ff60a81b1916815560405133917f238ce44d0fada9e1348f183a8436996fb52b4c41a9cbf3af6e2dee00fcb80a9c91a2565b600054600160a01b900460ff1690565b6105006105d5565b61050a6000610614565b565b6000546001600160a01b031690565b60026020526000908152604090205460ff1681565b610538610664565b600034116105585760405162461bcd60e51b81526004016101fb906107da565b336001600160a01b03167f2da466a7b24304f47e87fa2e1e5a81b9831ce54fec19055ce277ca2f39ba42c43460405161059191906107eb565b60405180910390a2565b6105a36105d5565b6001600160a01b0381166105c95760405162461bcd60e51b81526004016101fb90610735565b6105d281610614565b50565b6105dd610689565b6001600160a01b03166105ee61050c565b6001600160a01b03161461050a5760405162461bcd60e51b81526004016101fb906107a5565b600080546001600160a01b038381166001600160a01b0319831681178455604051919092169283917f8be0079c531659141344cd1fd0a4f28419497f9722a3daafe3b4186f6b6457e09190a35050565b61066c6104e8565b1561050a5760405162461bcd60e51b81526004016101fb9061077b565b3390565b80356001600160a01b03811681146106a457600080fd5b919050565b6000602082840312156106ba578081fd5b6106c38261068d565b9392505050565b6000602082840312156106db578081fd5b5035919050565b6000806000606084860312156106f6578182fd5b833592506107066020850161068d565b9150604084013590509250925092565b6001600160a01b0391909116815260200190565b901515815260200190565b60208082526026908201527f4f776e61626c653a206e6577206f776e657220697320746865207a65726f206160408201526564647265737360d01b606082015260800190565b60208082526010908201526f14185d5cd8589b194e881c185d5cd95960821b604082015260600190565b6020808252818101527f4f776e61626c653a2063616c6c6572206973206e6f7420746865206f776e6572604082015260600190565b602080825260009082015260400190565b90815260200190565b91825260208201526040019056fea2646970667358221220177070af96772145a620144181892f41774efd2793c6b0fd6f2028c23ac0b74964736f6c63430008000033",
    "sourcePath": "c:/Users/HyunKi/myproject/contracts/Room.sol",
    "compiler": {
        "name": "solc",
        "version": "0.8.0+commit.c7dfd78e"
    },
    "functionHashes": {
        "activate()": "0f15f4c0",
        "active()": "02fb0c5e",
        "deactivate()": "51b42b00",
        "deposit()": "d0e30db0",
        "owner()": "8da5cb5b",
        "paused()": "5c975abb",
        "refundToOwner()": "3e4e10d6",
        "renounceOwnership()": "715018a6",
        "rewardSent(uint256)": "8f134025",
        "sendReward(uint256,address,uint256)": "2673bd74",
        "transferOwnership(address)": "f2fde38b"
    },
    "gasEstimates": {
        "creation": {
            "codeDepositCost": "420800",
            "executionCost": "infinite",
            "totalCost": "infinite"
        },
        "external": {
            "activate()": "23942",
            "active()": "1058",
            "deactivate()": "23993",
            "deposit()": "2608",
            "owner()": "1114",
            "paused()": "1057",
            "refundToOwner()": "infinite",
            "renounceOwnership()": "infinite",
            "rewardSent(uint256)": "1249",
            "sendReward(uint256,address,uint256)": "infinite",
            "transferOwnership(address)": "23833"
        }
    }
}