{
  "contractName": "Activatable",
  "abi": [
    {
      "anonymous": false,
      "inputs": [
        {
          "indexed": true,
          "internalType": "address",
          "name": "_sender",
          "type": "address"
        }
      ],
      "name": "Activate",
      "type": "event"
    },
    {
      "anonymous": false,
      "inputs": [
        {
          "indexed": true,
          "internalType": "address",
          "name": "_sender",
          "type": "address"
        }
      ],
      "name": "Deactivate",
      "type": "event"
    },
    {
      "anonymous": false,
      "inputs": [
        {
          "indexed": true,
          "internalType": "address",
          "name": "previousOwner",
          "type": "address"
        },
        {
          "indexed": true,
          "internalType": "address",
          "name": "newOwner",
          "type": "address"
        }
      ],
      "name": "OwnershipTransferred",
      "type": "event"
    },
    {
      "inputs": [],
      "name": "active",
      "outputs": [
        {
          "internalType": "bool",
          "name": "",
          "type": "bool"
        }
      ],
      "stateMutability": "view",
      "type": "function"
    },
    {
      "inputs": [],
      "name": "owner",
      "outputs": [
        {
          "internalType": "address",
          "name": "",
          "type": "address"
        }
      ],
      "stateMutability": "view",
      "type": "function"
    },
    {
      "inputs": [],
      "name": "renounceOwnership",
      "outputs": [],
      "stateMutability": "nonpayable",
      "type": "function"
    },
    {
      "inputs": [
        {
          "internalType": "address",
          "name": "newOwner",
          "type": "address"
        }
      ],
      "name": "transferOwnership",
      "outputs": [],
      "stateMutability": "nonpayable",
      "type": "function"
    },
    {
      "inputs": [],
      "name": "deactivate",
      "outputs": [],
      "stateMutability": "nonpayable",
      "type": "function"
    },
    {
      "inputs": [],
      "name": "activate",
      "outputs": [],
      "stateMutability": "nonpayable",
      "type": "function"
    }
  ],
  "bytecode": "0x608060405260008060146101000a81548160ff02191690831515021790555034801561002a57600080fd5b5061004761003c61004c60201b60201c565b61005460201b60201c565b610118565b600033905090565b60008060009054906101000a900473ffffffffffffffffffffffffffffffffffffffff169050816000806101000a81548173ffffffffffffffffffffffffffffffffffffffff021916908373ffffffffffffffffffffffffffffffffffffffff1602179055508173ffffffffffffffffffffffffffffffffffffffff168173ffffffffffffffffffffffffffffffffffffffff167f8be0079c531659141344cd1fd0a4f28419497f9722a3daafe3b4186f6b6457e060405160405180910390a35050565b6106b7806101276000396000f3fe608060405234801561001057600080fd5b50600436106100625760003560e01c806302fb0c5e146100675780630f15f4c01461008557806351b42b001461008f578063715018a6146100995780638da5cb5b146100a3578063f2fde38b146100c1575b600080fd5b61006f6100dd565b60405161007c91906105a0565b60405180910390f35b61008d6100f0565b005b6100976101a8565b005b6100a161025e565b005b6100ab610272565b6040516100b89190610585565b60405180910390f35b6100db60048036038101906100d6919061047e565b61029b565b005b600060149054906101000a900460ff1681565b600060149054906101000a900460ff1615610140576040517f08c379a0000000000000000000000000000000000000000000000000000000008152600401610137906105fb565b60405180910390fd5b61014861031f565b6001600060146101000a81548160ff0219169083151502179055503373ffffffffffffffffffffffffffffffffffffffff167ff7e9fe69e1d05372bc855b295bc4c34a1a0a5882164dd2b26df30a26c1c8ba1560405160405180910390a2565b600060149054906101000a900460ff166101f7576040517f08c379a00000000000000000000000000000000000000000000000000000000081526004016101ee906105fb565b60405180910390fd5b6101ff61031f565b60008060146101000a81548160ff0219169083151502179055503373ffffffffffffffffffffffffffffffffffffffff167f238ce44d0fada9e1348f183a8436996fb52b4c41a9cbf3af6e2dee00fcb80a9c60405160405180910390a2565b61026661031f565b610270600061039d565b565b60008060009054906101000a900473ffffffffffffffffffffffffffffffffffffffff16905090565b6102a361031f565b600073ffffffffffffffffffffffffffffffffffffffff168173ffffffffffffffffffffffffffffffffffffffff161415610313576040517f08c379a000000000000000000000000000000000000000000000000000000000815260040161030a906105bb565b60405180910390fd5b61031c8161039d565b50565b610327610461565b73ffffffffffffffffffffffffffffffffffffffff16610345610272565b73ffffffffffffffffffffffffffffffffffffffff161461039b576040517f08c379a0000000000000000000000000000000000000000000000000000000008152600401610392906105db565b60405180910390fd5b565b60008060009054906101000a900473ffffffffffffffffffffffffffffffffffffffff169050816000806101000a81548173ffffffffffffffffffffffffffffffffffffffff021916908373ffffffffffffffffffffffffffffffffffffffff1602179055508173ffffffffffffffffffffffffffffffffffffffff168173ffffffffffffffffffffffffffffffffffffffff167f8be0079c531659141344cd1fd0a4f28419497f9722a3daafe3b4186f6b6457e060405160405180910390a35050565b600033905090565b6000813590506104788161066a565b92915050565b60006020828403121561049057600080fd5b600061049e84828501610469565b91505092915050565b6104b08161062c565b82525050565b6104bf8161063e565b82525050565b60006104d260268361061b565b91507f4f776e61626c653a206e6577206f776e657220697320746865207a65726f206160008301527f64647265737300000000000000000000000000000000000000000000000000006020830152604082019050919050565b600061053860208361061b565b91507f4f776e61626c653a2063616c6c6572206973206e6f7420746865206f776e65726000830152602082019050919050565b600061057860008361061b565b9150600082019050919050565b600060208201905061059a60008301846104a7565b92915050565b60006020820190506105b560008301846104b6565b92915050565b600060208201905081810360008301526105d4816104c5565b9050919050565b600060208201905081810360008301526105f48161052b565b9050919050565b600060208201905081810360008301526106148161056b565b9050919050565b600082825260208201905092915050565b60006106378261064a565b9050919050565b60008115159050919050565b600073ffffffffffffffffffffffffffffffffffffffff82169050919050565b6106738161062c565b811461067e57600080fd5b5056fea26469706673582212203b1d51f314b1d4683d568b211507560b8b0b41b8468d4a2cd4f4b9b165feb66d64736f6c63430008000033",
  "immutableReferences": {},
  "source": "// SPDX-License-Identifier: MIT\r\npragma solidity ^0.8.0;\r\n\r\nimport \"@openzeppelin/contracts/access/Ownable.sol\";\r\n\r\ncontract Activatable is Ownable {\r\n    event Deactivate(address indexed _sender);\r\n    event Activate(address indexed _sender);\r\n\r\n    bool public active = false;\r\n\r\n    modifier whenActive() {\r\n        require(active, \"\");\r\n        _;\r\n    }\r\n\r\n    modifier whenNotActive() {\r\n        require(!active, \"\");\r\n        _;\r\n    }\r\n\r\n    function deactivate() public whenActive onlyOwner {\r\n        active = false;\r\n        emit Deactivate(msg.sender);\r\n    }\r\n\r\n    function activate() public whenNotActive onlyOwner {\r\n        active = true;\r\n        emit Activate(msg.sender);\r\n    }\r\n}",
  "sourcePath": "C:\\Users\\HyunKi\\myproject\\contracts\\Activatable.sol",
  "compiler": {
    "name": "solc",
    "version": "0.8.0+commit.c7dfd78e.Emscripten.clang"
  },
  "schemaVersion": "3.4.8",
  "updatedAt": "2022-08-06T12:02:24.029Z",
  "devdoc": {
    "kind": "dev",
    "methods": {
      "owner()": {
        "details": "Returns the address of the current owner."
      },
      "renounceOwnership()": {
        "details": "Leaves the contract without owner. It will not be possible to call `onlyOwner` functions anymore. Can only be called by the current owner. NOTE: Renouncing ownership will leave the contract without an owner, thereby removing any functionality that is only available to the owner."
      },
      "transferOwnership(address)": {
        "details": "Transfers ownership of the contract to a new account (`newOwner`). Can only be called by the current owner."
      }
    },
    "version": 1
  },
  "userdoc": {
    "kind": "user",
    "methods": {},
    "version": 1
  }
}