{
  "contractName": "RoomFactory",
  "abi": [
    {
      "anonymous": false,
      "inputs": [
        {
          "indexed": true,
          "internalType": "address",
          "name": "previousOwner",
          "type": "address"
        },
        {
          "indexed": true,
          "internalType": "address",
          "name": "newOwner",
          "type": "address"
        }
      ],
      "name": "OwnershipTransferred",
      "type": "event"
    },
    {
      "anonymous": false,
      "inputs": [
        {
          "indexed": false,
          "internalType": "address",
          "name": "account",
          "type": "address"
        }
      ],
      "name": "Paused",
      "type": "event"
    },
    {
      "anonymous": false,
      "inputs": [
        {
          "indexed": true,
          "internalType": "address",
          "name": "_creator",
          "type": "address"
        },
        {
          "indexed": false,
          "internalType": "address",
          "name": "_room",
          "type": "address"
        },
        {
          "indexed": false,
          "internalType": "uint256",
          "name": "_depositedValue",
          "type": "uint256"
        }
      ],
      "name": "RoomCreated",
      "type": "event"
    },
    {
      "anonymous": false,
      "inputs": [
        {
          "indexed": false,
          "internalType": "address",
          "name": "account",
          "type": "address"
        }
      ],
      "name": "Unpaused",
      "type": "event"
    },
    {
      "inputs": [],
      "name": "owner",
      "outputs": [
        {
          "internalType": "address",
          "name": "",
          "type": "address"
        }
      ],
      "stateMutability": "view",
      "type": "function",
      "constant": true
    },
    {
      "inputs": [],
      "name": "paused",
      "outputs": [
        {
          "internalType": "bool",
          "name": "",
          "type": "bool"
        }
      ],
      "stateMutability": "view",
      "type": "function",
      "constant": true
    },
    {
      "inputs": [],
      "name": "renounceOwnership",
      "outputs": [],
      "stateMutability": "nonpayable",
      "type": "function"
    },
    {
      "inputs": [
        {
          "internalType": "address",
          "name": "newOwner",
          "type": "address"
        }
      ],
      "name": "transferOwnership",
      "outputs": [],
      "stateMutability": "nonpayable",
      "type": "function"
    },
    {
      "inputs": [],
      "name": "createRoom",
      "outputs": [],
      "stateMutability": "payable",
      "type": "function",
      "payable": true
    }
  ],
  "bytecode": "0x608060405234801561001057600080fd5b5061002d61002261004c60201b60201c565b61005460201b60201c565b60008060146101000a81548160ff021916908315150217905550610118565b600033905090565b60008060009054906101000a900473ffffffffffffffffffffffffffffffffffffffff169050816000806101000a81548173ffffffffffffffffffffffffffffffffffffffff021916908373ffffffffffffffffffffffffffffffffffffffff1602179055508173ffffffffffffffffffffffffffffffffffffffff168173ffffffffffffffffffffffffffffffffffffffff167f8be0079c531659141344cd1fd0a4f28419497f9722a3daafe3b4186f6b6457e060405160405180910390a35050565b6117e9806101276000396000f3fe60806040526004361061004a5760003560e01c80633be272aa1461004f5780635c975abb14610059578063715018a6146100845780638da5cb5b1461009b578063f2fde38b146100c6575b600080fd5b6100576100ef565b005b34801561006557600080fd5b5061006e610184565b60405161007b9190610592565b60405180910390f35b34801561009057600080fd5b5061009961019a565b005b3480156100a757600080fd5b506100b06101ae565b6040516100bd919061054e565b60405180910390f35b3480156100d257600080fd5b506100ed60048036038101906100e89190610412565b6101d7565b005b6100f761025b565b60003433604051610107906103ef565b610111919061054e565b6040518091039082f090508015801561012e573d6000803e3d6000fd5b5090503373ffffffffffffffffffffffffffffffffffffffff167f6849f7a409ad97d39c5ffa074bf765330bf1a574da99d4c4831196ecd77ea8da8234604051610179929190610569565b60405180910390a250565b60008060149054906101000a900460ff16905090565b6101a26102a5565b6101ac6000610323565b565b60008060009054906101000a900473ffffffffffffffffffffffffffffffffffffffff16905090565b6101df6102a5565b600073ffffffffffffffffffffffffffffffffffffffff168173ffffffffffffffffffffffffffffffffffffffff16141561024f576040517f08c379a0000000000000000000000000000000000000000000000000000000008152600401610246906105ad565b60405180910390fd5b61025881610323565b50565b610263610184565b156102a3576040517f08c379a000000000000000000000000000000000000000000000000000000000815260040161029a906105cd565b60405180910390fd5b565b6102ad6103e7565b73ffffffffffffffffffffffffffffffffffffffff166102cb6101ae565b73ffffffffffffffffffffffffffffffffffffffff1614610321576040517f08c379a0000000000000000000000000000000000000000000000000000000008152600401610318906105ed565b60405180910390fd5b565b60008060009054906101000a900473ffffffffffffffffffffffffffffffffffffffff169050816000806101000a81548173ffffffffffffffffffffffffffffffffffffffff021916908373ffffffffffffffffffffffffffffffffffffffff1602179055508173ffffffffffffffffffffffffffffffffffffffff168173ffffffffffffffffffffffffffffffffffffffff167f8be0079c531659141344cd1fd0a4f28419497f9722a3daafe3b4186f6b6457e060405160405180910390a35050565b600033905090565b611136806200067e83390190565b60008135905061040c81610666565b92915050565b60006020828403121561042457600080fd5b6000610432848285016103fd565b91505092915050565b6104448161061e565b82525050565b61045381610630565b82525050565b600061046660268361060d565b91507f4f776e61626c653a206e6577206f776e657220697320746865207a65726f206160008301527f64647265737300000000000000000000000000000000000000000000000000006020830152604082019050919050565b60006104cc60108361060d565b91507f5061757361626c653a20706175736564000000000000000000000000000000006000830152602082019050919050565b600061050c60208361060d565b91507f4f776e61626c653a2063616c6c6572206973206e6f7420746865206f776e65726000830152602082019050919050565b6105488161065c565b82525050565b6000602082019050610563600083018461043b565b92915050565b600060408201905061057e600083018561043b565b61058b602083018461053f565b9392505050565b60006020820190506105a7600083018461044a565b92915050565b600060208201905081810360008301526105c681610459565b9050919050565b600060208201905081810360008301526105e6816104bf565b9050919050565b60006020820190508181036000830152610606816104ff565b9050919050565b600082825260208201905092915050565b60006106298261063c565b9050919050565b60008115159050919050565b600073ffffffffffffffffffffffffffffffffffffffff82169050919050565b6000819050919050565b61066f8161061e565b811461067a57600080fd5b5056fe608060405260008060156101000a81548160ff0219169083151502179055506200002e6200011560201b60201c565b600160006101000a81548173ffffffffffffffffffffffffffffffffffffffff021916908373ffffffffffffffffffffffffffffffffffffffff1602179055506040516200113638038062001136833981810160405281019062000093919062000221565b620000b3620000a76200013e60201b60201c565b6200014660201b60201c565b60008060146101000a81548160ff02191690831515021790555080600160006101000a81548173ffffffffffffffffffffffffffffffffffffffff021916908373ffffffffffffffffffffffffffffffffffffffff160217905550506200029b565b60008060009054906101000a900473ffffffffffffffffffffffffffffffffffffffff16905090565b600033905090565b60008060009054906101000a900473ffffffffffffffffffffffffffffffffffffffff169050816000806101000a81548173ffffffffffffffffffffffffffffffffffffffff021916908373ffffffffffffffffffffffffffffffffffffffff1602179055508173ffffffffffffffffffffffffffffffffffffffff168173ffffffffffffffffffffffffffffffffffffffff167f8be0079c531659141344cd1fd0a4f28419497f9722a3daafe3b4186f6b6457e060405160405180910390a35050565b6000815190506200021b8162000281565b92915050565b6000602082840312156200023457600080fd5b600062000244848285016200020a565b91505092915050565b60006200025a8262000261565b9050919050565b600073ffffffffffffffffffffffffffffffffffffffff82169050919050565b6200028c816200024d565b81146200029857600080fd5b50565b610e8b80620002ab6000396000f3fe60806040526004361061009c5760003560e01c80635c975abb116100645780635c975abb1461013a578063715018a6146101655780638da5cb5b1461017c5780638f134025146101a7578063d0e30db0146101e4578063f2fde38b146101ee5761009c565b806302fb0c5e146100a15780630f15f4c0146100cc5780632673bd74146100e35780633e4e10d61461010c57806351b42b0014610123575b600080fd5b3480156100ad57600080fd5b506100b6610217565b6040516100c39190610cef565b60405180910390f35b3480156100d857600080fd5b506100e161022a565b005b3480156100ef57600080fd5b5061010a60048036038101906101059190610b58565b6102e2565b005b34801561011857600080fd5b506101216105a0565b005b34801561012f57600080fd5b50610138610700565b005b34801561014657600080fd5b5061014f6107b6565b60405161015c9190610cef565b60405180910390f35b34801561017157600080fd5b5061017a6107cc565b005b34801561018857600080fd5b506101916107e0565b60405161019e9190610cd4565b60405180910390f35b3480156101b357600080fd5b506101ce60048036038101906101c99190610b2f565b610809565b6040516101db9190610cef565b60405180910390f35b6101ec610829565b005b3480156101fa57600080fd5b5061021560048036038101906102109190610b06565b6108c4565b005b600060159054906101000a900460ff1681565b600060159054906101000a900460ff161561027a576040517f08c379a000000000000000000000000000000000000000000000000000000000815260040161027190610d6a565b60405180910390fd5b610282610948565b6001600060156101000a81548160ff0219169083151502179055503373ffffffffffffffffffffffffffffffffffffffff167ff7e9fe69e1d05372bc855b295bc4c34a1a0a5882164dd2b26df30a26c1c8ba1560405160405180910390a2565b6102ea610948565b6002600082815260200190815260200160002060009054906101000a900460ff161561034b576040517f08c379a000000000000000000000000000000000000000000000000000000000815260040161034290610d6a565b60405180910390fd5b6000831161038e576040517f08c379a000000000000000000000000000000000000000000000000000000000815260040161038590610d6a565b60405180910390fd5b824710156103d1576040517f08c379a00000000000000000000000000000000000000000000000000000000081526004016103c890610d6a565b60405180910390fd5b600073ffffffffffffffffffffffffffffffffffffffff168273ffffffffffffffffffffffffffffffffffffffff161415610441576040517f08c379a000000000000000000000000000000000000000000000000000000000815260040161043890610d6a565b60405180910390fd5b600160009054906101000a900473ffffffffffffffffffffffffffffffffffffffff1673ffffffffffffffffffffffffffffffffffffffff168273ffffffffffffffffffffffffffffffffffffffff1614156104d2576040517f08c379a00000000000000000000000000000000000000000000000000000000081526004016104c990610d6a565b60405180910390fd5b60016002600083815260200190815260200160002060006101000a81548160ff02191690831515021790555060008290508073ffffffffffffffffffffffffffffffffffffffff166108fc859081150290604051600060405180830381858888f19350505050158015610549573d6000803e3d6000fd5b508273ffffffffffffffffffffffffffffffffffffffff167f6379339f0ae63e95e65fad18ca2a7ec4e7e3f05f3cc5f7079f4d8da8cec34faa8584604051610592929190610da5565b60405180910390a250505050565b600060159054906101000a900460ff16156105f0576040517f08c379a00000000000000000000000000000000000000000000000000000000081526004016105e790610d6a565b60405180910390fd5b6105f8610948565b6000471161063b576040517f08c379a000000000000000000000000000000000000000000000000000000000815260040161063290610d6a565b60405180910390fd5b60004790506000600160009054906101000a900473ffffffffffffffffffffffffffffffffffffffff1690508073ffffffffffffffffffffffffffffffffffffffff166108fc479081150290604051600060405180830381858888f193505050501580156106ad573d6000803e3d6000fd5b503373ffffffffffffffffffffffffffffffffffffffff167fa9304f0ac97f820b11d5a66f29245fb1e76b1f1f93f46a84a71682e69d095e80836040516106f49190610d8a565b60405180910390a25050565b600060159054906101000a900460ff1661074f576040517f08c379a000000000000000000000000000000000000000000000000000000000815260040161074690610d6a565b60405180910390fd5b610757610948565b60008060156101000a81548160ff0219169083151502179055503373ffffffffffffffffffffffffffffffffffffffff167f238ce44d0fada9e1348f183a8436996fb52b4c41a9cbf3af6e2dee00fcb80a9c60405160405180910390a2565b60008060149054906101000a900460ff16905090565b6107d4610948565b6107de60006109c6565b565b60008060009054906101000a900473ffffffffffffffffffffffffffffffffffffffff16905090565b60026020528060005260406000206000915054906101000a900460ff1681565b610831610a8a565b60003411610874576040517f08c379a000000000000000000000000000000000000000000000000000000000815260040161086b90610d6a565b60405180910390fd5b3373ffffffffffffffffffffffffffffffffffffffff167f2da466a7b24304f47e87fa2e1e5a81b9831ce54fec19055ce277ca2f39ba42c4346040516108ba9190610d8a565b60405180910390a2565b6108cc610948565b600073ffffffffffffffffffffffffffffffffffffffff168173ffffffffffffffffffffffffffffffffffffffff16141561093c576040517f08c379a000000000000000000000000000000000000000000000000000000000815260040161093390610d0a565b60405180910390fd5b610945816109c6565b50565b610950610ad4565b73ffffffffffffffffffffffffffffffffffffffff1661096e6107e0565b73ffffffffffffffffffffffffffffffffffffffff16146109c4576040517f08c379a00000000000000000000000000000000000000000000000000000000081526004016109bb90610d4a565b60405180910390fd5b565b60008060009054906101000a900473ffffffffffffffffffffffffffffffffffffffff169050816000806101000a81548173ffffffffffffffffffffffffffffffffffffffff021916908373ffffffffffffffffffffffffffffffffffffffff1602179055508173ffffffffffffffffffffffffffffffffffffffff168173ffffffffffffffffffffffffffffffffffffffff167f8be0079c531659141344cd1fd0a4f28419497f9722a3daafe3b4186f6b6457e060405160405180910390a35050565b610a926107b6565b15610ad2576040517f08c379a0000000000000000000000000000000000000000000000000000000008152600401610ac990610d2a565b60405180910390fd5b565b600033905090565b600081359050610aeb81610e27565b92915050565b600081359050610b0081610e3e565b92915050565b600060208284031215610b1857600080fd5b6000610b2684828501610adc565b91505092915050565b600060208284031215610b4157600080fd5b6000610b4f84828501610af1565b91505092915050565b600080600060608486031215610b6d57600080fd5b6000610b7b86828701610af1565b9350506020610b8c86828701610adc565b9250506040610b9d86828701610af1565b9150509250925092565b610bb081610ddf565b82525050565b610bbf81610df1565b82525050565b6000610bd2602683610dce565b91507f4f776e61626c653a206e6577206f776e657220697320746865207a65726f206160008301527f64647265737300000000000000000000000000000000000000000000000000006020830152604082019050919050565b6000610c38601083610dce565b91507f5061757361626c653a20706175736564000000000000000000000000000000006000830152602082019050919050565b6000610c78602083610dce565b91507f4f776e61626c653a2063616c6c6572206973206e6f7420746865206f776e65726000830152602082019050919050565b6000610cb8600083610dce565b9150600082019050919050565b610cce81610e1d565b82525050565b6000602082019050610ce96000830184610ba7565b92915050565b6000602082019050610d046000830184610bb6565b92915050565b60006020820190508181036000830152610d2381610bc5565b9050919050565b60006020820190508181036000830152610d4381610c2b565b9050919050565b60006020820190508181036000830152610d6381610c6b565b9050919050565b60006020820190508181036000830152610d8381610cab565b9050919050565b6000602082019050610d9f6000830184610cc5565b92915050565b6000604082019050610dba6000830185610cc5565b610dc76020830184610cc5565b9392505050565b600082825260208201905092915050565b6000610dea82610dfd565b9050919050565b60008115159050919050565b600073ffffffffffffffffffffffffffffffffffffffff82169050919050565b6000819050919050565b610e3081610ddf565b8114610e3b57600080fd5b50565b610e4781610e1d565b8114610e5257600080fd5b5056fea2646970667358221220857c32868f722ffff4e5700501f838276767ef63ae889dd5fb09e382ff4269f364736f6c63430008000033a2646970667358221220170ea881f8debddfae7aa59ca406475c99dcf89972044c23ccf5ae9ce95d4d2d64736f6c63430008000033",
  "immutableReferences": {},
  "source": "// SPDX-License-Identifier: MIT\r\npragma solidity ^0.8.0;\r\n\r\nimport \"@openzeppelin/contracts/access/Ownable.sol\";\r\nimport \"@openzeppelin/contracts/security/Pausable.sol\";\r\nimport \"./Room.sol\";\r\n\r\ncontract RoomFactory is Ownable, Pausable{\r\n    event RoomCreated(address indexed _creator, address _room, uint _depositedValue);\r\n\r\n    function createRoom() external payable whenNotPaused {\r\n        Room room = new Room{value: msg.value}(msg.sender);\r\n        emit RoomCreated(msg.sender, address(room), msg.value);\r\n    }\r\n}",
  "sourcePath": "C:\\Users\\HyunKi\\myproject\\contracts\\RoomFactory.sol",
  "compiler": {
    "name": "solc",
    "version": "0.8.0+commit.c7dfd78e.Emscripten.clang"
  },
  "schemaVersion": "3.4.8",
  "updatedAt": "2022-08-06T12:02:45.546Z",
  "networkType": "ethereum",
  "devdoc": {
    "kind": "dev",
    "methods": {
      "owner()": {
        "details": "Returns the address of the current owner."
      },
      "paused()": {
        "details": "Returns true if the contract is paused, and false otherwise."
      },
      "renounceOwnership()": {
        "details": "Leaves the contract without owner. It will not be possible to call `onlyOwner` functions anymore. Can only be called by the current owner. NOTE: Renouncing ownership will leave the contract without an owner, thereby removing any functionality that is only available to the owner."
      },
      "transferOwnership(address)": {
        "details": "Transfers ownership of the contract to a new account (`newOwner`). Can only be called by the current owner."
      }
    },
    "version": 1
  },
  "userdoc": {
    "kind": "user",
    "methods": {},
    "version": 1
  }
}